:020000040800F2
:10000000D8060020CD010008C5090008BD09000878
:10001000C1090008F5040008050E000800000000F2
:10002000000000000000000000000000890B000834
:100030004D05000800000000390A00089D0C00086A
:10004000E7010008E7010008E7010008E7010008F0
:10005000E7010008E7010008E7010008E7010008E0
:10006000E7010008E7010008E7010008E7010008D0
:10007000E7010008E7010008E7010008E7010008C0
:10008000E7010008E7010008E7010008E7010008B0
:10009000E7010008E7010008E7010008E7010008A0
:1000A000E7010008E7010008E7010008E701000890
:1000B000E7010008E7010008E7010008E701000880
:1000C000E7010008E7010008E7010008E701000870
:1000D000E7010008E7010008E7010008E701000860
:1000E00069050008E7010008E7010008E7010008CA
:1000F000E7010008E7010008E7010008E701000840
:10010000E7010008E7010008E7010008E70100082F
:10011000E7010008E7010008E7010008E70100081F
:10012000E7010008E7010008E7010008E70100080F
:1001300000F002F800F03AF80AA090E8000C8244BF
:100140008344AAF10107DA4501D100F02FF8AFF29C
:10015000090EBAE80F0013F0010F18BFFB1A43F0A5
:1001600001031847B00F0000D00F0000103A24BF61
:1001700078C878C1FAD8520724BF30C830C144BF0C
:1001800004680C607047000000230024002500264E
:10019000103A28BF78C1FBD8520728BF30C148BFEA
:1001A0000B6070471FB51FBD10B510BD00F033F8D0
:1001B0001146FFF7F7FF00F01DFF00F051F803B400
:1001C000FFF7F2FF03BC00F01FFE00000948804764
:1001D00009480047FEE7FEE7FEE7FEE7FEE7FEE729
:1001E000FEE7FEE7FEE7FEE704480549054A064B41
:1001F00070470000A10C000831010008D800002061
:10020000D8060020D8020020D8020020704770478E
:10021000704770477047754600F02CF8AE460500F1
:100220006946534620F00700854618B020B5FFF711
:10023000DBFFBDE820404FF000064FF000074FF015
:1002400000084FF0000B21F00701AC46ACE8C009F4
:10025000ACE8C009ACE8C009ACE8C0098D467047FD
:1002600010B50446AFF300802046BDE81040FFF70C
:10027000A6BF0000004870477400002021B18268CA
:1002800042F00102826003E0826822F00102826093
:100290007047000010B504461248844208D101217D
:1002A000401500F0F7FB0021601500F0F3FB17E0AC
:1002B0000D48844208D10121001500F0EBFB00211C
:1002C000201500F0E7FB0BE00848844208D101212B
:1002D000C80300F0DFFB00214FF4004000F0DAFB20
:1002E00010BD00000024014000280140003C0140F6
:1002F000014600208A6802F004020AB1012000E0F1
:10030000002070470146C86C80B27047024600204A
:1003100013680B400BB1012000E00020704701463C
:1003200000208A6802F008020AB1012000E00020E3
:100330007047000030B502460020002350680F4C83
:1003400020400D790C6844EA0524204350609068F1
:100350000B4C2040D1E902542C434D7944EA45042A
:1003600020439060D06A20F470000C7C641EE4B2DC
:10037000234340EA0350D06230BD0000FFFEF0FF8F
:10038000FDF7F1FFF0B504460D4600200021092DD0
:1003900011DDE068A5F10A0606EB4607072606FA16
:1003A00007F18843A5F10A0606EB460603FA06F1B3
:1003B0000843E0600CE0206905EB4507072606FAD4
:1003C00007F1884305EB450603FA06F1084320616F
:1003D000072A0FDA606B561E06EB86071F2606FA01
:1003E00007F18843561E06EB860605FA06F1084318
:1003F000606322E00D2A0FDA206BD61F06EB86071A
:100400001F2606FA07F18843D61F06EB860605FA73
:1004100006F10843206310E0E06AA2F10D0606EB46
:1004200086071F2606FA07F18843A2F10D0606EBA0
:10043000860605FA06F10843E062F0BD816841F0E6
:1004400008018160704721B1826842F4A002826095
:1004500003E0826822F4A00282607047816841F064
:10046000040181607047000000B587B001214FF49E
:10047000017000F0FFFA4FF4004000F0DFFA0F20A7
:10048000ADF8040000208DF8070001A9174800F01E
:1004900039F91748FFF7FEFE002002908DF80C0096
:1004A0008DF80D004FF4602004900020059001208D
:1004B0008DF8180002A90E48FFF73CFF01210C48F7
:1004C000FFF7DCFE0A48FFF7B9FF00BF0848FFF757
:1004D00026FF0028FAD10648FFF7C0FF00BF0448F6
:1004E000FFF706FF0028FAD107B000BD0008014061
:1004F0000024014000BFFEE721B1026842F0010282
:10050000026004E002684FF6FE731A400260704712
:1005100010B50022026847F6F0739A430C6A8B68A4
:1005200023430C6923434C6923438C692343CC69DF
:1005300023434C6A23438C6A23431A430260CB68EB
:1005400043600B6883604B68C36010BD7047000058
:1005500010B50121084600F08DFA0121014800F094
:100560005DF910BD0002300010B500211F48FFF7F3
:10057000C3FF4FF4805000F047F810B34FF48051A0
:100580001B4800F093F901281BD11A48006820F499
:1005900080501849086000BF1748008800F04000EC
:1005A0000028F9D0FF201449091D088000BF124817
:1005B000008800F040000028F9D0FF200E49091DF6
:1005C000088002E0012000F043FC4FF4805108480D
:1005D00000F06CF90128F5D04FF4805000F00EF8CF
:1005E00001210248FFF788FF10BD000044000240CF
:1005F000000C01400004014000380140014908603E
:100600007047000014040140014600200022074BFF
:100610001B6803EA0102054B14331B680B4013B13E
:100620000AB1012000E000207047000000040140F2
:10063000002123498279002A3AD00A4612680368C9
:100640009A430B461A600A1D126803689A430B1DF1
:100650001A60027911440A6803681A430A60184A4A
:100660000832126803689A43154B08331A601A1D42
:10067000126803689A43124B0C331A604279102AAD
:100680000ED11A1F126803681A430D4B08331A6003
:100690001A1D126803681A43094B0C331A600DE0E7
:1006A0000749427911440A6803681A430A6005E061
:1006B000027911440A6803689A430A60704700008F
:1006C0000004014030B500228B071C0F0F2303FAF2
:1006D00004F20B4B8C1053F824309343084C8D10CC
:1006E00044F8253023468C1053F824308C07240F0F
:1006F00000FA04F42343024C8D1044F8253030BD39
:10070000080001402DE9F0410246002500260020A6
:1007100000230024002791F803C00CF00F0591F886
:1007200003C00CF0100CBCF1000F03D091F802C014
:100730004CEA050591F800C0BCF1000F31D01468F7
:1007400000202BE04FF0010C0CFA00F3B1F800C0D0
:100750000CEA03069E4220D183004FF00F0C0CFAE6
:1007600003F7BC4305FA03FC4CEA040491F803C008
:10077000BCF1280F06D14FF0010C0CFA00FCC2F8B6
:1007800014C00AE091F803C0BCF1480F05D14FF046
:10079000010C0CFA00FCC2F810C0401C0828D1D390
:1007A0001460B1F800C0BCF1FF0F34DD54680020C4
:1007B0002EE000F1080C4FF0010808FA0CF3B1F834
:1007C00000C00CEA03069E4221D183004FF00F0CBB
:1007D0000CFA03F7BC4305FA03FC4CEA040491F855
:1007E00003C0BCF1280F05D100F1080C08FA0CF881
:1007F000C2F8148091F803C0BCF1480F07D100F192
:10080000080C4FF0010808FA0CF8C2F81080401CE0
:100810000828CED35460BDE8F0810000F0B50A4648
:10082000002300240021002500F00046B6F1004F0F
:1008300002D11D4EF16901E01B4E7168C0F3034502
:1008400083B200F44016B6F5401F08D121F0706164
:10085000154E766826F07066134F7E6012E000F445
:100860008016B6F5801F06D1032606FA05F4A143CB
:1008700041F0706106E0460D360103FA06F6B14319
:1008800041F0706122B1460D360103FA06F631439C
:1008900000F00046B6F1004F02D1034EF16101E0D5
:1008A000014E7160F0BD00000000014002460020D2
:1008B00093680B400BB1012000E000207047C1603D
:1008C000704700002DE9FC4105460026002740E066
:1008D000F9002248FFF7F3FF052000F0DFFA0026B9
:1008E00028E0F0B2052100F055F8044636B1012E9B
:1008F0000BD0022E10D0032E1BD114E020128DF845
:100900000000E0B28DF8010000BF20128DF8020057
:10091000E0B28DF8030000BF20128DF80600E0B2AF
:100920008DF8070000BF20128DF80400E0B28DF8AA
:100930000500761C032ED4DD2F706D1C002004E012
:100940001DF8001029706D1C401C0828F8DB781C6D
:10095000C7B2082FBCDBBDE8FC810000000C0140E1
:1009600010B504460723012221460948FFF70AFD76
:1009700001210748FFF767FD00BF02210448FFF788
:10098000C5FC0028F9D00248FFF7BCFC10BD0000F0
:10099000002401402DE9F04107460C4600250026C1
:1009A00005E03846FFF7DCFF0544701CC6B2A642DE
:1009B000F7DBB5FBF4F080B2BDE8F08100BFFEE7E5
:1009C00000BFFEE77047000070B5002100230F2232
:1009D000C47804B3154C246804F4E064C4F5E064FE
:1009E000210AC1F10403CA40447804FA03F184786F
:1009F0001440214309010E4C0678A155047804F0F7
:100A00001F050124AC4005786D11AD0005F1E0250E
:100A1000C5F8004109E0047804F01F050124AC404A
:100A2000044D0678761145F8264070BD0CED00E0C7
:100A300000E400E080E100E0704700000146002093
:100A4000034A506820F4404008435060704700005B
:100A50000010024029B1064A52690243044B5A6110
:100A600004E0034A52698243014B5A617047000017
:100A70000010024029B1064A92690243044B9A6170
:100A800004E0034A92698243014B9A617047000077
:100A90000010024029B1064AD2680243044BDA60D2
:100AA00004E0034AD2688243014BDA6070470000D9
:100AB0000010024030B500210022002400232D4DFB
:100AC0006D6805F00C0121B1042905D0082923D156
:100AD00005E0294D056022E0274D05601FE0254D0A
:100AE0006D6805F47012234D6D6805F4803402259D
:100AF00005EB92421CB9214D554305600BE01D4D9D
:100B00006D6805F400351DB11C4D5543056002E0CC
:100B1000194D5543056002E0174D056000BF00BF49
:100B2000144D6D6805F0F0010909154D6B5C056801
:100B3000DD4045600F4D6D6805F4E061090A104D18
:100B40006B5C4568DD4085600A4D6D6805F4605159
:100B5000C90A0B4D6B5C4568DD40C560054D6D688D
:100B600005F44041890B074D6B5CC568B5FBF3F597
:100B7000056130BD0010024000127A0000093D00FE
:100B80001400002024000020704710B500F002F887
:100B900010BD00000CB500200190009033480068A3
:100BA00040F480303149086000BF3048006800F4EC
:100BB000003000900198401C0190009818B90198ED
:100BC000B0F5A06FF1D12948006800F4003010B1F1
:100BD0000120009001E0002000900098012843D1FE
:100BE0002348006840F0100021490860084600686A
:100BF00020F0030008600846006840F0020008602A
:100C00001A484068194948600846406848600846E4
:100C1000406840F4806048600846406820F47C10DA
:100C200048600846406840F4E8104860084600689C
:100C300040F08070086000BF0C48006800F0007051
:100C40000028F9D00948406820F0030007494860AF
:100C50000846406840F00200486000BF0348406812
:100C600000F00C000828F9D10CBD00000010024073
:100C700000200240042808D14FF0E021096941F02A
:100C800004014FF0E022116107E04FF0E021096913
:100C900021F004014FF0E02211617047704700001D
:100CA00010B51348006840F001001149086008467B
:100CB0004068104908400E494860084600680E49DF
:100CC00008400B4908600846006820F4802008604E
:100CD0000846406820F4FE0048604FF41F0088601A
:100CE000FFF753FF4FF000600449086010BD00009B
:100CF000001002400000FFF8FFFFF6FE08ED00E0E4
:100D000021B1828942F40052828104E082894DF649
:100D1000FF731A40828170471AB1838A0B43838222
:100D200002E0838A8B438382704700002DE9F047FD
:100D300086B005460E460024A24600BFA146002705
:100D4000B08900B100BF2F462C8A4CF6FF700440DA
:100D5000F08804432C82AC894EF6F3100440B0882E
:100D600031890843718908430443AC81AC8A4FF64A
:100D7000FF400440B0890443AC8201A8FFF79AFE0B
:100D80001F48874202D1DDF810A001E0DDF80CA079
:100D9000A88900F4004040B10AEBCA0000EB0A1039
:100DA00031684900B0FBF1F807E00AEBCA0000EB3C
:100DB0000A1031688900B0FBF1F86420B8FBF0F04C
:100DC00004012009642101FB1089A88900F4004076
:100DD00040B1322000EBC900B0FBF1F000F0070099
:100DE000044308E0322000EB09106421B0FBF1F06D
:100DF00000F00F0004432C8106B0BDE8F08700002E
:100E00000038014000BFFEE700BF704710B56FF02B
:100E10000400FFF72FFF0A4800680A49B0FBF1F011
:100E2000094908700846007800EB4001C1EBC0108A
:100E30004FF6FF7101EAC0000449088010BD0000B0
:100E40000000002000127A00280000202A00002064
:100E50000146114A12884A434FF0E0235A610022AA
:100E60009A611A46126942F001021A6100BF4FF0FE
:100E7000E022106900F001021AB100F48032002A69
:100E8000F5D04FF0E022126922F001024FF0E0238A
:100E90001A6100229A6170472A0000200146114A17
:100EA00012784A434FF0E0235A6100229A611A46B1
:100EB000126942F001021A6100BF4FF0E02210698E
:100EC00000F001021AB100F48032002AF5D04FF090
:100ED000E022126922F001024FF0E0231A610022A1
:100EE0009A61704728000020F0B58BB007460C4689
:100EF00015461E4601210846FFF7ACFD00940195FA
:100F0000102002900396002004908020059000207D
:100F10000690079008904FF48050099000200A90A6
:100F200069463846FFF7F4FA0BB0F0BD70B50446D9
:100F30000D4600212046FFF7DFFA656001212046BB
:100F4000FFF7DAFA70BD0EB50C210120FFF7BAFBEE
:100F50004FF48050019000208DF8080008208DF893
:100F6000090001208DF80A0001A8FFF761FB282085
:100F70008DF8000000208DF801008DF8020001209E
:100F80008DF803006846FFF71FFD0EBD10B500F099
:100F900003F8FFF7D8FF10BD08B501210820FFF7BF
:100FA00069FD4FF48050ADF8000028208DF8030053
:100FB00003208DF8020069460148FFF7A3FB08BD36
:100FC000000C014008B5FFF7C3FA01210820FFF724
:100FD00051FD3820ADF8000010208DF803000320EB
:100FE0008DF8020069460248FFF78CFB08BD00003F
:100FF000000C01401B4800F03FF8FFF707FFFFF728
:1010000033FAFFF7DFFF4823174A18491848FFF75C
:101010006BFFFFF7BBFF1448FFF754FC482114484F
:10102000FFF784FF1CE01048FFF74CFC00BF10489E
:101030004438006800F400500028F8D00C484438C8
:10104000406840F400500A49443948604821084843
:10105000FFF76CFF0748006840F4805005490860BE
:10106000E1E7000060E316002C0000200438014096
:10107000440002400004014010B586B0044601213E
:1010800044F20400FFF7F6FC4FF40070ADF81400D2
:1010900003208DF8160018208DF8170005A91B48AD
:1010A000FFF730FB4FF48060ADF8140004208DF89A
:1010B000170005A91548FFF725FB4FF40060ADF8B0
:1010C000140048208DF8170005A91048FFF71AFBF7
:1010D00001940020ADF80800ADF80A00ADF80C004E
:1010E0004FF40070ADF810000820ADF80E0001A913
:1010F0000748FFF71BFE01210548FFF701FE01220B
:1011000080210348FFF708FE06B010BD000801402B
:101110000038014034110008000000202C000000BD
:101120006C010008601100082C000020AC060000D3
:101130008801000800A24A0400000000000000002E
:10114000010203040607080900000000010203046D
:101150000102030406070809020406080000000053
:0400000508000131BD
:00000001FF
